{
  "contractName": "Roulette",
  "abi": [
    {
      "inputs": [
        {
          "internalType": "address payable",
          "name": "roscoinAddress",
          "type": "address"
        }
      ],
      "payable": false,
      "stateMutability": "nonpayable",
      "type": "constructor"
    },
    {
      "anonymous": false,
      "inputs": [
        {
          "indexed": true,
          "internalType": "address",
          "name": "player",
          "type": "address"
        },
        {
          "indexed": false,
          "internalType": "bytes32",
          "name": "qid",
          "type": "bytes32"
        },
        {
          "indexed": false,
          "internalType": "uint256",
          "name": "betSize",
          "type": "uint256"
        },
        {
          "indexed": false,
          "internalType": "uint8",
          "name": "betNumber",
          "type": "uint8"
        }
      ],
      "name": "Bet",
      "type": "event"
    },
    {
      "anonymous": false,
      "inputs": [
        {
          "indexed": false,
          "internalType": "address",
          "name": "account",
          "type": "address"
        }
      ],
      "name": "Paused",
      "type": "event"
    },
    {
      "anonymous": false,
      "inputs": [
        {
          "indexed": true,
          "internalType": "address",
          "name": "account",
          "type": "address"
        }
      ],
      "name": "PauserAdded",
      "type": "event"
    },
    {
      "anonymous": false,
      "inputs": [
        {
          "indexed": true,
          "internalType": "address",
          "name": "account",
          "type": "address"
        }
      ],
      "name": "PauserRemoved",
      "type": "event"
    },
    {
      "anonymous": false,
      "inputs": [
        {
          "indexed": true,
          "internalType": "address",
          "name": "winner",
          "type": "address"
        },
        {
          "indexed": false,
          "internalType": "bytes32",
          "name": "qid",
          "type": "bytes32"
        },
        {
          "indexed": false,
          "internalType": "uint256",
          "name": "payout",
          "type": "uint256"
        }
      ],
      "name": "Payout",
      "type": "event"
    },
    {
      "anonymous": false,
      "inputs": [
        {
          "indexed": true,
          "internalType": "address",
          "name": "player",
          "type": "address"
        },
        {
          "indexed": false,
          "internalType": "bytes32",
          "name": "qid",
          "type": "bytes32"
        },
        {
          "indexed": false,
          "internalType": "uint256",
          "name": "betSize",
          "type": "uint256"
        },
        {
          "indexed": false,
          "internalType": "uint8",
          "name": "betNumber",
          "type": "uint8"
        },
        {
          "indexed": false,
          "internalType": "uint8",
          "name": "winningNumber",
          "type": "uint8"
        }
      ],
      "name": "Play",
      "type": "event"
    },
    {
      "anonymous": false,
      "inputs": [
        {
          "indexed": false,
          "internalType": "address",
          "name": "account",
          "type": "address"
        }
      ],
      "name": "Unpaused",
      "type": "event"
    },
    {
      "payable": true,
      "stateMutability": "payable",
      "type": "fallback"
    },
    {
      "constant": false,
      "inputs": [
        {
          "internalType": "address",
          "name": "account",
          "type": "address"
        }
      ],
      "name": "addPauser",
      "outputs": [],
      "payable": false,
      "stateMutability": "nonpayable",
      "type": "function"
    },
    {
      "constant": true,
      "inputs": [],
      "name": "backedToken",
      "outputs": [
        {
          "internalType": "contract BackedToken",
          "name": "",
          "type": "address"
        }
      ],
      "payable": false,
      "stateMutability": "view",
      "type": "function"
    },
    {
      "constant": true,
      "inputs": [],
      "name": "balanceForBacking",
      "outputs": [
        {
          "internalType": "uint256",
          "name": "",
          "type": "uint256"
        }
      ],
      "payable": false,
      "stateMutability": "view",
      "type": "function"
    },
    {
      "constant": false,
      "inputs": [],
      "name": "deposit",
      "outputs": [],
      "payable": true,
      "stateMutability": "payable",
      "type": "function"
    },
    {
      "constant": true,
      "inputs": [
        {
          "internalType": "address",
          "name": "account",
          "type": "address"
        }
      ],
      "name": "isPauser",
      "outputs": [
        {
          "internalType": "bool",
          "name": "",
          "type": "bool"
        }
      ],
      "payable": false,
      "stateMutability": "view",
      "type": "function"
    },
    {
      "constant": false,
      "inputs": [],
      "name": "pause",
      "outputs": [],
      "payable": false,
      "stateMutability": "nonpayable",
      "type": "function"
    },
    {
      "constant": true,
      "inputs": [],
      "name": "paused",
      "outputs": [
        {
          "internalType": "bool",
          "name": "",
          "type": "bool"
        }
      ],
      "payable": false,
      "stateMutability": "view",
      "type": "function"
    },
    {
      "constant": false,
      "inputs": [],
      "name": "renouncePauser",
      "outputs": [],
      "payable": false,
      "stateMutability": "nonpayable",
      "type": "function"
    },
    {
      "constant": false,
      "inputs": [],
      "name": "unpause",
      "outputs": [],
      "payable": false,
      "stateMutability": "nonpayable",
      "type": "function"
    },
    {
      "constant": false,
      "inputs": [
        {
          "internalType": "uint256",
          "name": "ethAmount",
          "type": "uint256"
        }
      ],
      "name": "withdraw",
      "outputs": [],
      "payable": false,
      "stateMutability": "nonpayable",
      "type": "function"
    },
    {
      "constant": false,
      "inputs": [
        {
          "internalType": "uint8",
          "name": "number",
          "type": "uint8"
        }
      ],
      "name": "bet",
      "outputs": [],
      "payable": true,
      "stateMutability": "payable",
      "type": "function"
    },
    {
      "constant": false,
      "inputs": [
        {
          "internalType": "bytes32",
          "name": "qid",
          "type": "bytes32"
        },
        {
          "internalType": "string",
          "name": "result",
          "type": "string"
        }
      ],
      "name": "__callback",
      "outputs": [],
      "payable": false,
      "stateMutability": "nonpayable",
      "type": "function"
    },
    {
      "constant": false,
      "inputs": [
        {
          "internalType": "bytes32",
          "name": "_myid",
          "type": "bytes32"
        },
        {
          "internalType": "string",
          "name": "_result",
          "type": "string"
        },
        {
          "internalType": "bytes",
          "name": "_proof",
          "type": "bytes"
        }
      ],
      "name": "__callback",
      "outputs": [],
      "payable": false,
      "stateMutability": "nonpayable",
      "type": "function"
    },
    {
      "constant": true,
      "inputs": [],
      "name": "maxBet",
      "outputs": [
        {
          "internalType": "uint256",
          "name": "maxBet",
          "type": "uint256"
        }
      ],
      "payable": false,
      "stateMutability": "view",
      "type": "function"
    },
    {
      "constant": true,
      "inputs": [],
      "name": "oraclizeFeeEstimate",
      "outputs": [
        {
          "internalType": "uint256",
          "name": "",
          "type": "uint256"
        }
      ],
      "payable": false,
      "stateMutability": "pure",
      "type": "function"
    }
  ],
  "bytecode": "0x60806040523480156200001157600080fd5b506040516200325b3803806200325b833981810160405260208110156200003757600080fd5b8101908080519060200190929190505050806200005a336200017960201b60201c565b6000600660006101000a81548160ff02191690831515021790555080600660016101000a81548173ffffffffffffffffffffffffffffffffffffffff021916908373ffffffffffffffffffffffffffffffffffffffff160217905550600660019054906101000a900473ffffffffffffffffffffffffffffffffffffffff1673ffffffffffffffffffffffffffffffffffffffff1663d63fedc5306040518263ffffffff1660e01b8152600401808273ffffffffffffffffffffffffffffffffffffffff1673ffffffffffffffffffffffffffffffffffffffff168152602001915050600060405180830381600087803b1580156200015857600080fd5b505af11580156200016d573d6000803e3d6000fd5b5050505050506200039e565b62000194816005620001da60201b620026361790919060201c565b8073ffffffffffffffffffffffffffffffffffffffff167f6719d08c1888103bea251a4ed56406bd0c3e69723c8a1686e017e7bbe159b6f860405160405180910390a250565b620001ec8282620002be60201b60201c565b1562000260576040517f08c379a000000000000000000000000000000000000000000000000000000000815260040180806020018281038252601f8152602001807f526f6c65733a206163636f756e7420616c72656164792068617320726f6c650081525060200191505060405180910390fd5b60018260000160008373ffffffffffffffffffffffffffffffffffffffff1673ffffffffffffffffffffffffffffffffffffffff16815260200190815260200160002060006101000a81548160ff0219169083151502179055505050565b60008073ffffffffffffffffffffffffffffffffffffffff168273ffffffffffffffffffffffffffffffffffffffff16141562000347576040517f08c379a0000000000000000000000000000000000000000000000000000000008152600401808060200182810382526022815260200180620032396022913960400191505060405180910390fd5b8260000160008373ffffffffffffffffffffffffffffffffffffffff1673ffffffffffffffffffffffffffffffffffffffff16815260200190815260200160002060009054906101000a900460ff16905092915050565b612e8b80620003ae6000396000f3fe6080604052600436106100e85760003560e01c80636ef8d66d1161008a5780639a26c0c4116100595780639a26c0c41461052b578063d0821b0e14610556578063d0e30db014610587578063ea3f73ad14610591576100e8565b80636ef8d66d1461045557806382dc1ec41461046c5780638456cb59146104bd5780638e6b523e146104d4576100e8565b806338bbfa50116100c657806338bbfa501461023d5780633f4ba83a146103a657806346fbf68e146103bd5780635c975abb14610426576100e8565b806327dc297e146101055780632e1a7d4d146101d75780632e5b216814610212575b6100fd346007546105bc90919063ffffffff16565b600781905550005b34801561011157600080fd5b506101d56004803603604081101561012857600080fd5b81019080803590602001909291908035906020019064010000000081111561014f57600080fd5b82018360208201111561016157600080fd5b8035906020019184600183028401116401000000008311171561018357600080fd5b91908080601f016020809104026020016040519081016040528093929190818152602001838380828437600081840152601f19601f820116905080830192505050505050509192919290505050610644565b005b3480156101e357600080fd5b50610210600480360360208110156101fa57600080fd5b81019080803590602001909291905050506109c5565b005b34801561021e57600080fd5b50610227610bd7565b6040518082815260200191505060405180910390f35b34801561024957600080fd5b506103a46004803603606081101561026057600080fd5b81019080803590602001909291908035906020019064010000000081111561028757600080fd5b82018360208201111561029957600080fd5b803590602001918460018302840111640100000000831117156102bb57600080fd5b91908080601f016020809104026020016040519081016040528093929190818152602001838380828437600081840152601f19601f8201169050808301925050505050505091929192908035906020019064010000000081111561031e57600080fd5b82018360208201111561033057600080fd5b8035906020019184600183028401116401000000008311171561035257600080fd5b91908080601f016020809104026020016040519081016040528093929190818152602001838380828437600081840152601f19601f820116905080830192505050505050509192919290505050610bfd565b005b3480156103b257600080fd5b506103bb610c02565b005b3480156103c957600080fd5b5061040c600480360360208110156103e057600080fd5b81019080803573ffffffffffffffffffffffffffffffffffffffff169060200190929190505050610d62565b604051808215151515815260200191505060405180910390f35b34801561043257600080fd5b5061043b610d7f565b604051808215151515815260200191505060405180910390f35b34801561046157600080fd5b5061046a610d96565b005b34801561047857600080fd5b506104bb6004803603602081101561048f57600080fd5b81019080803573ffffffffffffffffffffffffffffffffffffffff169060200190929190505050610da1565b005b3480156104c957600080fd5b506104d2610e0b565b005b3480156104e057600080fd5b506104e9610f6c565b604051808273ffffffffffffffffffffffffffffffffffffffff1673ffffffffffffffffffffffffffffffffffffffff16815260200191505060405180910390f35b34801561053757600080fd5b50610540610f92565b6040518082815260200191505060405180910390f35b6105856004803603602081101561056c57600080fd5b81019080803560ff169060200190929190505050610f98565b005b61058f6112ba565b005b34801561059d57600080fd5b506105a661137d565b6040518082815260200191505060405180910390f35b60008082840190508381101561063a576040517f08c379a000000000000000000000000000000000000000000000000000000000815260040180806020018281038252601b8152602001807f536166654d6174683a206164646974696f6e206f766572666c6f77000000000081525060200191505060405180910390fd5b8091505092915050565b61064c61138c565b73ffffffffffffffffffffffffffffffffffffffff163373ffffffffffffffffffffffffffffffffffffffff16146106cf576040517f08c379a0000000000000000000000000000000000000000000000000000000008152600401808060200182810382526031815260200180612cb86031913960400191505060405180910390fd5b600073ffffffffffffffffffffffffffffffffffffffff166008600084815260200190815260200160002060000160009054906101000a900473ffffffffffffffffffffffffffffffffffffffff1673ffffffffffffffffffffffffffffffffffffffff1614156107a8576040517f08c379a00000000000000000000000000000000000000000000000000000000081526004018080602001828103825260208152602001807f5175657279206e6565647320616e206173736f63696174656420706c6179657281525060200191505060405180910390fd5b60006107b3826116a9565b905060006008600085815260200190815260200160002090508060000160009054906101000a900473ffffffffffffffffffffffffffffffffffffffff1673ffffffffffffffffffffffffffffffffffffffff167f91be5b5d42b869d0275147918e4b559f9d2d696bc711937642c9363242ef11008583600101548460020160009054906101000a900460ff1686604051808581526020018481526020018360ff1660ff1681526020018260ff1660ff16815260200194505050505060405180910390a261089081600101546007546105bc90919063ffffffff16565b6007819055508160ff168160020160009054906101000a900460ff1660ff1614156109655760008160000160009054906101000a900473ffffffffffffffffffffffffffffffffffffffff16905060006108f8602484600101546116bd90919063ffffffff16565b905060086000878152602001908152602001600020600080820160006101000a81549073ffffffffffffffffffffffffffffffffffffffff021916905560018201600090556002820160006101000a81549060ff0219169055505061095e828783611743565b50506109bf565b60086000858152602001908152602001600020600080820160006101000a81549073ffffffffffffffffffffffffffffffffffffffff021916905560018201600090556002820160006101000a81549060ff021916905550505b50505050565b600660019054906101000a900473ffffffffffffffffffffffffffffffffffffffff1673ffffffffffffffffffffffffffffffffffffffff163373ffffffffffffffffffffffffffffffffffffffff1614610a6b576040517f08c379a000000000000000000000000000000000000000000000000000000000815260040180806020018281038252602f815260200180612ce9602f913960400191505060405180910390fd5b3073ffffffffffffffffffffffffffffffffffffffff1631811115610adb576040517f08c379a0000000000000000000000000000000000000000000000000000000008152600401808060200182810382526022815260200180612d486022913960400191505060405180910390fd5b600754811115610b36576040517f08c379a000000000000000000000000000000000000000000000000000000000815260040180806020018281038252602e815260200180612c8a602e913960400191505060405180910390fd5b610b4b816007546118c990919063ffffffff16565b600781905550600660019054906101000a900473ffffffffffffffffffffffffffffffffffffffff1673ffffffffffffffffffffffffffffffffffffffff1663d0e30db0826040518263ffffffff1660e01b81526004016000604051808303818588803b158015610bbb57600080fd5b505af1158015610bcf573d6000803e3d6000fd5b505050505050565b6000610be161137d565b610bf760c860075461195290919063ffffffff16565b01905090565b505050565b610c0b33610d62565b610c60576040517f08c379a0000000000000000000000000000000000000000000000000000000008152600401808060200182810382526030815260200180612d186030913960400191505060405180910390fd5b600660009054906101000a900460ff16610ce2576040517f08c379a00000000000000000000000000000000000000000000000000000000081526004018080602001828103825260148152602001807f5061757361626c653a206e6f742070617573656400000000000000000000000081525060200191505060405180910390fd5b6000600660006101000a81548160ff0219169083151502179055507f5db9ee0a495bf2e6ff9c91a7834c1ba4fdd244a5e8aa4e537bd38aeae4b073aa33604051808273ffffffffffffffffffffffffffffffffffffffff1673ffffffffffffffffffffffffffffffffffffffff16815260200191505060405180910390a1565b6000610d788260056119e190919063ffffffff16565b9050919050565b6000600660009054906101000a900460ff16905090565b610d9f33611abf565b565b610daa33610d62565b610dff576040517f08c379a0000000000000000000000000000000000000000000000000000000008152600401808060200182810382526030815260200180612d186030913960400191505060405180910390fd5b610e0881611b19565b50565b610e1433610d62565b610e69576040517f08c379a0000000000000000000000000000000000000000000000000000000008152600401808060200182810382526030815260200180612d186030913960400191505060405180910390fd5b600660009054906101000a900460ff1615610eec576040517f08c379a00000000000000000000000000000000000000000000000000000000081526004018080602001828103825260108152602001807f5061757361626c653a207061757365640000000000000000000000000000000081525060200191505060405180910390fd5b6001600660006101000a81548160ff0219169083151502179055507f62e78cea01bee320cd4e420270b5ea74000d11b0c9f74754ebdbfc544b05a25833604051808273ffffffffffffffffffffffffffffffffffffffff1673ffffffffffffffffffffffffffffffffffffffff16815260200191505060405180910390a1565b600660019054906101000a900473ffffffffffffffffffffffffffffffffffffffff1681565b60075481565b600660009054906101000a900460ff161561101b576040517f08c379a00000000000000000000000000000000000000000000000000000000081526004018080602001828103825260108152602001807f5061757361626c653a207061757365640000000000000000000000000000000081525060200191505060405180910390fd5b611023610bd7565b34111561107b576040517f08c379a0000000000000000000000000000000000000000000000000000000008152600401808060200182810382526026815260200180612d6a6026913960400191505060405180910390fd5b60006110bb6040518060400160405280600c81526020017f576f6c6672616d416c7068610000000000000000000000000000000000000000815250611b73565b9050803411611115576040517f08c379a000000000000000000000000000000000000000000000000000000000815260040180806020018281038252602d815260200180612e08602d913960400191505060405180910390fd5b6000813403905060006111926040518060400160405280600c81526020017f576f6c6672616d416c70686100000000000000000000000000000000000000008152506040518060400160405280601f81526020017f72616e646f6d20696e7465676572206265747765656e203020616e6420333600815250611f04565b905060405180606001604052803373ffffffffffffffffffffffffffffffffffffffff1681526020018381526020018560ff168152506008600083815260200190815260200160002060008201518160000160006101000a81548173ffffffffffffffffffffffffffffffffffffffff021916908373ffffffffffffffffffffffffffffffffffffffff1602179055506020820151816001015560408201518160020160006101000a81548160ff021916908360ff1602179055509050503373ffffffffffffffffffffffffffffffffffffffff167f214ae1d1aa57aeaec2e90ff231808911a5a626a3c6bc242503a829db732011ce828487604051808481526020018381526020018260ff1660ff168152602001935050505060405180910390a250505050565b600660019054906101000a900473ffffffffffffffffffffffffffffffffffffffff1673ffffffffffffffffffffffffffffffffffffffff163373ffffffffffffffffffffffffffffffffffffffff1614611360576040517f08c379a000000000000000000000000000000000000000000000000000000000815260040180806020018281038252602f815260200180612ce9602f913960400191505060405180910390fd5b611375346007546105bc90919063ffffffff16565b600781905550565b6000660e35fa931a0000905090565b60008073ffffffffffffffffffffffffffffffffffffffff16600160009054906101000a900473ffffffffffffffffffffffffffffffffffffffff1673ffffffffffffffffffffffffffffffffffffffff16148061141457506000611412600160009054906101000a900473ffffffffffffffffffffffffffffffffffffffff1661244a565b145b15611425576114236000612455565b505b600160009054906101000a900473ffffffffffffffffffffffffffffffffffffffff1673ffffffffffffffffffffffffffffffffffffffff166338cc48316040518163ffffffff1660e01b8152600401602060405180830381600087803b15801561148f57600080fd5b505af11580156114a3573d6000803e3d6000fd5b505050506040513d60208110156114b957600080fd5b810190808051906020019092919050505073ffffffffffffffffffffffffffffffffffffffff166000809054906101000a900473ffffffffffffffffffffffffffffffffffffffff1673ffffffffffffffffffffffffffffffffffffffff161461160257600160009054906101000a900473ffffffffffffffffffffffffffffffffffffffff1673ffffffffffffffffffffffffffffffffffffffff166338cc48316040518163ffffffff1660e01b8152600401602060405180830381600087803b15801561158757600080fd5b505af115801561159b573d6000803e3d6000fd5b505050506040513d60208110156115b157600080fd5b81019080805190602001909291905050506000806101000a81548173ffffffffffffffffffffffffffffffffffffffff021916908373ffffffffffffffffffffffffffffffffffffffff1602179055505b6000809054906101000a900473ffffffffffffffffffffffffffffffffffffffff1673ffffffffffffffffffffffffffffffffffffffff1663c281d19e6040518163ffffffff1660e01b815260040160206040518083038186803b15801561166957600080fd5b505afa15801561167d573d6000803e3d6000fd5b505050506040513d602081101561169357600080fd5b8101908080519060200190929190505050905090565b60006116b6826000612466565b9050919050565b6000808314156116d0576000905061173d565b60008284029050828482816116e157fe5b0414611738576040517f08c379a0000000000000000000000000000000000000000000000000000000008152600401808060200182810382526021815260200180612de76021913960400191505060405180910390fd5b809150505b92915050565b6000811161179c576040517f08c379a0000000000000000000000000000000000000000000000000000000008152600401808060200182810382526023815260200180612c676023913960400191505060405180910390fd5b3073ffffffffffffffffffffffffffffffffffffffff163181111561180c576040517f08c379a0000000000000000000000000000000000000000000000000000000008152600401808060200182810382526036815260200180612d906036913960400191505060405180910390fd5b611821816007546118c990919063ffffffff16565b6007819055508273ffffffffffffffffffffffffffffffffffffffff166108fc829081150290604051600060405180830381858888f1935050505015801561186d573d6000803e3d6000fd5b508273ffffffffffffffffffffffffffffffffffffffff167f212950d8b6a2784adeaa8e088d070610bdfab9eaef5a7127d90118ec1cf34a618383604051808381526020018281526020019250505060405180910390a2505050565b600082821115611941576040517f08c379a000000000000000000000000000000000000000000000000000000000815260040180806020018281038252601e8152602001807f536166654d6174683a207375627472616374696f6e206f766572666c6f77000081525060200191505060405180910390fd5b600082840390508091505092915050565b60008082116119c9576040517f08c379a000000000000000000000000000000000000000000000000000000000815260040180806020018281038252601a8152602001807f536166654d6174683a206469766973696f6e206279207a65726f00000000000081525060200191505060405180910390fd5b60008284816119d457fe5b0490508091505092915050565b60008073ffffffffffffffffffffffffffffffffffffffff168273ffffffffffffffffffffffffffffffffffffffff161415611a68576040517f08c379a0000000000000000000000000000000000000000000000000000000008152600401808060200182810382526022815260200180612e356022913960400191505060405180910390fd5b8260000160008373ffffffffffffffffffffffffffffffffffffffff1673ffffffffffffffffffffffffffffffffffffffff16815260200190815260200160002060009054906101000a900460ff16905092915050565b611ad381600561257990919063ffffffff16565b8073ffffffffffffffffffffffffffffffffffffffff167fcd265ebaf09df2871cc7bd4133404a235ba12eff2041bb89d9c714a2621c7c7e60405160405180910390a250565b611b2d81600561263690919063ffffffff16565b8073ffffffffffffffffffffffffffffffffffffffff167f6719d08c1888103bea251a4ed56406bd0c3e69723c8a1686e017e7bbe159b6f860405160405180910390a250565b60008073ffffffffffffffffffffffffffffffffffffffff16600160009054906101000a900473ffffffffffffffffffffffffffffffffffffffff1673ffffffffffffffffffffffffffffffffffffffff161480611bfb57506000611bf9600160009054906101000a900473ffffffffffffffffffffffffffffffffffffffff1661244a565b145b15611c0c57611c0a6000612455565b505b600160009054906101000a900473ffffffffffffffffffffffffffffffffffffffff1673ffffffffffffffffffffffffffffffffffffffff166338cc48316040518163ffffffff1660e01b8152600401602060405180830381600087803b158015611c7657600080fd5b505af1158015611c8a573d6000803e3d6000fd5b505050506040513d6020811015611ca057600080fd5b810190808051906020019092919050505073ffffffffffffffffffffffffffffffffffffffff166000809054906101000a900473ffffffffffffffffffffffffffffffffffffffff1673ffffffffffffffffffffffffffffffffffffffff1614611de957600160009054906101000a900473ffffffffffffffffffffffffffffffffffffffff1673ffffffffffffffffffffffffffffffffffffffff166338cc48316040518163ffffffff1660e01b8152600401602060405180830381600087803b158015611d6e57600080fd5b505af1158015611d82573d6000803e3d6000fd5b505050506040513d6020811015611d9857600080fd5b81019080805190602001909291905050506000806101000a81548173ffffffffffffffffffffffffffffffffffffffff021916908373ffffffffffffffffffffffffffffffffffffffff1602179055505b6000809054906101000a900473ffffffffffffffffffffffffffffffffffffffff1673ffffffffffffffffffffffffffffffffffffffff1663524f3889836040518263ffffffff1660e01b81526004018080602001828103825283818151815260200191508051906020019080838360005b83811015611e76578082015181840152602081019050611e5b565b50505050905090810190601f168015611ea35780820380516001836020036101000a031916815260200191505b5092505050602060405180830381600087803b158015611ec257600080fd5b505af1158015611ed6573d6000803e3d6000fd5b505050506040513d6020811015611eec57600080fd5b81019080805190602001909291905050509050919050565b60008073ffffffffffffffffffffffffffffffffffffffff16600160009054906101000a900473ffffffffffffffffffffffffffffffffffffffff1673ffffffffffffffffffffffffffffffffffffffff161480611f8c57506000611f8a600160009054906101000a900473ffffffffffffffffffffffffffffffffffffffff1661244a565b145b15611f9d57611f9b6000612455565b505b600160009054906101000a900473ffffffffffffffffffffffffffffffffffffffff1673ffffffffffffffffffffffffffffffffffffffff166338cc48316040518163ffffffff1660e01b8152600401602060405180830381600087803b15801561200757600080fd5b505af115801561201b573d6000803e3d6000fd5b505050506040513d602081101561203157600080fd5b810190808051906020019092919050505073ffffffffffffffffffffffffffffffffffffffff166000809054906101000a900473ffffffffffffffffffffffffffffffffffffffff1673ffffffffffffffffffffffffffffffffffffffff161461217a57600160009054906101000a900473ffffffffffffffffffffffffffffffffffffffff1673ffffffffffffffffffffffffffffffffffffffff166338cc48316040518163ffffffff1660e01b8152600401602060405180830381600087803b1580156120ff57600080fd5b505af1158015612113573d6000803e3d6000fd5b505050506040513d602081101561212957600080fd5b81019080805190602001909291905050506000806101000a81548173ffffffffffffffffffffffffffffffffffffffff021916908373ffffffffffffffffffffffffffffffffffffffff1602179055505b60008060009054906101000a900473ffffffffffffffffffffffffffffffffffffffff1673ffffffffffffffffffffffffffffffffffffffff1663524f3889856040518263ffffffff1660e01b81526004018080602001828103825283818151815260200191508051906020019080838360005b838110156122095780820151818401526020810190506121ee565b50505050905090810190601f1680156122365780820380516001836020036101000a031916815260200191505b5092505050602060405180830381600087803b15801561225557600080fd5b505af1158015612269573d6000803e3d6000fd5b505050506040513d602081101561227f57600080fd5b8101908080519060200190929190505050905062030d403a02670de0b6b3a7640000018111156122b5576000801b915050612444565b6000809054906101000a900473ffffffffffffffffffffffffffffffffffffffff1673ffffffffffffffffffffffffffffffffffffffff1663adf59f9982600087876040518563ffffffff1660e01b8152600401808481526020018060200180602001838103835285818151815260200191508051906020019080838360005b83811015612350578082015181840152602081019050612335565b50505050905090810190601f16801561237d5780820380516001836020036101000a031916815260200191505b50838103825284818151815260200191508051906020019080838360005b838110156123b657808201518184015260208101905061239b565b50505050905090810190601f1680156123e35780820380516001836020036101000a031916815260200191505b50955050505050506020604051808303818588803b15801561240457600080fd5b505af1158015612418573d6000803e3d6000fd5b50505050506040513d602081101561242f57600080fd5b81019080805190602001909291905050509150505b92915050565b6000813b9050919050565b600061245f612711565b9050919050565b600060608390506000809050600080905060008090505b835181101561255a57603084828151811061249457fe5b602001015160f81c60f81b60f81c60ff16101580156124d0575060398482815181106124bc57fe5b602001015160f81c60f81b60f81c60ff1611155b156125225781156124f35760008614156124e95761255a565b8580600190039650505b600a83029250603084828151811061250757fe5b602001015160f81c60f81b60f81c60ff16038301925061254d565b602e84828151811061253057fe5b602001015160f81c60f81b60f81c60ff16141561254c57600191505b5b808060010191505061247d565b50600085111561256d5784600a0a820291505b81935050505092915050565b61258382826119e1565b6125d8576040517f08c379a0000000000000000000000000000000000000000000000000000000008152600401808060200182810382526021815260200180612dc66021913960400191505060405180910390fd5b60008260000160008373ffffffffffffffffffffffffffffffffffffffff1673ffffffffffffffffffffffffffffffffffffffff16815260200190815260200160002060006101000a81548160ff0219169083151502179055505050565b61264082826119e1565b156126b3576040517f08c379a000000000000000000000000000000000000000000000000000000000815260040180806020018281038252601f8152602001807f526f6c65733a206163636f756e7420616c72656164792068617320726f6c650081525060200191505060405180910390fd5b60018260000160008373ffffffffffffffffffffffffffffffffffffffff1673ffffffffffffffffffffffffffffffffffffffff16815260200190815260200160002060006101000a81548160ff0219169083151502179055505050565b600080612731731d3b2638a7cc9f2cb3d298a3da7a90b67e5506ed61244a565b11156127d357731d3b2638a7cc9f2cb3d298a3da7a90b67e5506ed600160006101000a81548173ffffffffffffffffffffffffffffffffffffffff021916908373ffffffffffffffffffffffffffffffffffffffff1602179055506127ca6040518060400160405280600b81526020017f6574685f6d61696e6e6574000000000000000000000000000000000000000000815250612ba7565b60019050612ba4565b60006127f273c03a2615d5efaf5f49f60b7bb6583eaec212fdf161244a565b11156128945773c03a2615d5efaf5f49f60b7bb6583eaec212fdf1600160006101000a81548173ffffffffffffffffffffffffffffffffffffffff021916908373ffffffffffffffffffffffffffffffffffffffff16021790555061288b6040518060400160405280600c81526020017f6574685f726f707374656e330000000000000000000000000000000000000000815250612ba7565b60019050612ba4565b60006128b373b7a07bcf2ba2f2703b24c0691b5278999c59ac7e61244a565b11156129555773b7a07bcf2ba2f2703b24c0691b5278999c59ac7e600160006101000a81548173ffffffffffffffffffffffffffffffffffffffff021916908373ffffffffffffffffffffffffffffffffffffffff16021790555061294c6040518060400160405280600981526020017f6574685f6b6f76616e0000000000000000000000000000000000000000000000815250612ba7565b60019050612ba4565b600061297473146500cfd35b22e4a392fe0adc06de1a1368ed4861244a565b1115612a165773146500cfd35b22e4a392fe0adc06de1a1368ed48600160006101000a81548173ffffffffffffffffffffffffffffffffffffffff021916908373ffffffffffffffffffffffffffffffffffffffff160217905550612a0d6040518060400160405280600b81526020017f6574685f72696e6b656279000000000000000000000000000000000000000000815250612ba7565b60019050612ba4565b6000612a35736f485c8bf6fc43ea212e93bbf8ce046c7f1cb47561244a565b1115612a9957736f485c8bf6fc43ea212e93bbf8ce046c7f1cb475600160006101000a81548173ffffffffffffffffffffffffffffffffffffffff021916908373ffffffffffffffffffffffffffffffffffffffff16021790555060019050612ba4565b6000612ab87320e12a1f859b3feae5fb2a0a32c18f5a65555bbf61244a565b1115612b1c577320e12a1f859b3feae5fb2a0a32c18f5a65555bbf600160006101000a81548173ffffffffffffffffffffffffffffffffffffffff021916908373ffffffffffffffffffffffffffffffffffffffff16021790555060019050612ba4565b6000612b3b7351efaf4c8b3c9afbd5ab9f4bbc82784ab6ef8faa61244a565b1115612b9f577351efaf4c8b3c9afbd5ab9f4bbc82784ab6ef8faa600160006101000a81548173ffffffffffffffffffffffffffffffffffffffff021916908373ffffffffffffffffffffffffffffffffffffffff16021790555060019050612ba4565b600090505b90565b8060029080519060200190612bbd929190612bc1565b5050565b828054600181600116156101000203166002900490600052602060002090601f016020900481019282601f10612c0257805160ff1916838001178555612c30565b82800160010185558215612c30579182015b82811115612c2f578251825591602001919060010190612c14565b5b509050612c3d9190612c41565b5090565b612c6391905b80821115612c5f576000816000905550600101612c47565b5090565b9056fe5061796f757420616d6f756e742073686f756c64206265206d6f7265207468616e203043616e206e6f74207769746864726177206d6f7265207468616e2062616c616e636520666f72206261636b696e6743616e206f6e6c792062652063616c6c65642066726f6d206f7261636c697a652063616c6c6261636b206164647265737343616e206f6e6c792062652063616c6c656420627920746865206261636b656420746f6b656e20636f6e7472616374506175736572526f6c653a2063616c6c657220646f6573206e6f742068617665207468652050617573657220726f6c6543616e206e6f74207769746864726177206d6f7265207468616e2062616c616e636542657420616d6f756e742063616e206e6f7420657863656564206d6178206265742073697a655061796f757420616d6f756e742073686f756c64206e6f74206265206d6f7265207468616e20636f6e74726163742062616c616e6365526f6c65733a206163636f756e7420646f6573206e6f74206861766520726f6c65536166654d6174683a206d756c7469706c69636174696f6e206f766572666c6f7742657420616d6f756e742073686f756c6420626520686967686572207468616e206f7261636c697a6520666565526f6c65733a206163636f756e7420697320746865207a65726f2061646472657373a265627a7a72315820b45403686e89db2d4dc071816da5b06958717338f0166429b2797f479072252f64736f6c634300050c0032526f6c65733a206163636f756e7420697320746865207a65726f2061646472657373",
  "source": "pragma solidity ^0.5.0;\n\nimport \"./BackingContract.sol\";\nimport \"./oraclizeAPI.sol\";\nimport \"openzeppelin-solidity/contracts/lifecycle/Pausable.sol\";\n\n/**\n * @title Roulette\n * @author Rosco Kalis <roscokalis@gmail.com>\n */\ncontract Roulette is usingOraclize, Pausable, BackingContract {\n    struct PlayerInfo {\n        address payable player;\n        uint256 betSize;\n        uint8 betNumber;\n    }\n\n    mapping(bytes32=>PlayerInfo) players;\n\n    event Bet(address indexed player, bytes32 qid, uint256 betSize, uint8 betNumber);\n    event Play(address indexed player, bytes32 qid, uint256 betSize, uint8 betNumber, uint8 winningNumber);\n    event Payout(address indexed winner, bytes32 qid, uint256 payout);\n\n    constructor(address payable roscoinAddress) BackingContract(roscoinAddress) public {}\n\n    /**\n     * @notice Bets an amount of eth on a specific number.\n     * @dev Updates token price according to value change.\n     * @dev Stores the player info in `players` mapping so it can be retrieved in `__callback()`.\n     * @dev Emits Bet event.\n     * @param number The number that is bet on.\n     */\n    function bet(uint8 number) external payable whenNotPaused {\n        require(msg.value <= maxBet(), \"Bet amount can not exceed max bet size\");\n\n        uint256 oraclizeFee = oraclize_getPrice(\"WolframAlpha\");\n        require(msg.value > oraclizeFee, \"Bet amount should be higher than oraclize fee\");\n\n        uint256 betValue = msg.value - oraclizeFee;\n\n        bytes32 qid = oraclize_query(\"WolframAlpha\", \"random integer between 0 and 36\");\n\n        /* Store a player's info to retrieve it in the oraclize callback */\n        players[qid] = PlayerInfo(msg.sender, betValue, number);\n        emit Bet(msg.sender, qid, betValue, number);\n    }\n\n    /**\n     * @notice Callback function for Oraclize, checks if the player won the bet, and payd out if they did.\n     * @dev Uses the `players` mapping to retrieve a player's information, deletes the player information afterwards.\n     * @dev Emits Play event.\n     * @param qid The query id of the corresponding Oraclize query.\n     * @param result The result of the Oraclize query.\n     */\n    function __callback(bytes32 qid, string memory result) public {\n        require(msg.sender == oraclize_cbAddress(), \"Can only be called from oraclize callback address\");\n        require(players[qid].player != address(0), \"Query needs an associated player\");\n\n        uint8 winningNumber = uint8(parseInt(result));\n        PlayerInfo storage playerInfo = players[qid];\n\n        emit Play(playerInfo.player, qid, playerInfo.betSize, playerInfo.betNumber, winningNumber);\n        balanceForBacking = balanceForBacking.add(playerInfo.betSize);\n\n        if (playerInfo.betNumber == winningNumber) {\n            address payable playerAddress = playerInfo.player;\n            uint256 payoutAmount = playerInfo.betSize.mul(36);\n            delete players[qid];\n\n            payout(playerAddress, qid, payoutAmount);\n        } else {\n            delete players[qid];\n        }\n    }\n\n    /**\n     * @notice Pays out an amount of eth to a bet winner.\n     * @dev Updates token price according to value change.\n     * @dev Emits Payout event.\n     * @param winner The account of the bet winner.\n     * @param qid The game for which the payout is made\n     * @param amount The amount to be paid out to the bet winner.\n     */\n    function payout(address winner, bytes32 qid, uint256 amount) internal {\n        require(amount > 0, \"Payout amount should be more than 0\");\n        require(amount <= address(this).balance, \"Payout amount should not be more than contract balance\");\n\n        balanceForBacking = balanceForBacking.sub(amount);\n        address(uint160(winner)).transfer(amount);\n        emit Payout(winner, qid, amount);\n    }\n\n    /**\n     * @notice Returns the maximum bet (0.5% of balance) for this contract.\n     * @dev Based on empirical statistics (see docs/max_bet_size.md).\n     * @return The maximum bet.\n     */\n    function maxBet() public view returns (uint256 maxBet) {\n        return balanceForBacking.div(200) + oraclizeFeeEstimate();\n    }\n\n    /**\n     * @notice Returns an estimate of the oraclize fee.\n     * @return An estimate of the oraclize fee.\n     */\n    function oraclizeFeeEstimate() public pure returns (uint256) {\n        return 0.004 ether;\n    }\n}\n",
  "sourcePath": "/Users/rosco/repos/ethereum/ethroulette/contracts/Roulette.sol",
  "compiler": {
    "name": "solc",
    "version": "0.5.12+commit.7709ece9.Emscripten.clang"
  },
  "schemaVersion": "3.0.20",
  "updatedAt": "2020-01-05T14:56:29.037Z",
  "devdoc": {
    "author": "Rosco Kalis <roscokalis@gmail.com>",
    "methods": {
      "__callback(bytes32,string)": {
        "details": "Uses the `players` mapping to retrieve a player's information, deletes the player information afterwards.Emits Play event.",
        "params": {
          "qid": "The query id of the corresponding Oraclize query.",
          "result": "The result of the Oraclize query."
        }
      },
      "bet(uint8)": {
        "details": "Updates token price according to value change.Stores the player info in `players` mapping so it can be retrieved in `__callback()`.Emits Bet event.",
        "params": {
          "number": "The number that is bet on."
        }
      },
      "deposit()": {
        "details": "Funds are added to balanceForBacking as well."
      },
      "maxBet()": {
        "details": "Based on empirical statistics (see docs/max_bet_size.md).",
        "return": "The maximum bet."
      },
      "oraclizeFeeEstimate()": {
        "return": "An estimate of the oraclize fee."
      },
      "pause()": {
        "details": "Called by a pauser to pause, triggers stopped state."
      },
      "paused()": {
        "details": "Returns true if the contract is paused, and false otherwise."
      },
      "unpause()": {
        "details": "Called by a pauser to unpause, returns to normal state."
      },
      "withdraw(uint256)": {
        "details": "Funds are removed from balanceForBacking as well.",
        "params": {
          "ethAmount": "The amount of eth to withdraw."
        }
      }
    },
    "title": "Roulette"
  },
  "userdoc": {
    "methods": {
      "__callback(bytes32,string)": {
        "notice": "Callback function for Oraclize, checks if the player won the bet, and payd out if they did."
      },
      "bet(uint8)": {
        "notice": "Bets an amount of eth on a specific number."
      },
      "deposit()": {
        "notice": "Allows the backed token to deposit funds into the contract."
      },
      "maxBet()": {
        "notice": "Returns the maximum bet (0.5% of balance) for this contract."
      },
      "oraclizeFeeEstimate()": {
        "notice": "Returns an estimate of the oraclize fee."
      },
      "withdraw(uint256)": {
        "notice": "Allows the backed token to withdraw funds from the contract."
      }
    }
  }
}